:020000040800F2
:1000000058070020C9000008951D0008C31B000800
:1000100000000000000000000000000000000000E0
:10002000000000000000000000000000991D000812
:100030000000000000000000971D00089B1D000844
:10004000DB00000800000000DB000008DB00000807
:10005000DB000008DB000008DB000008DB00000814
:1000600000000000C1040008DB000008DB000008FD
:10007000B1040008DB000008DB00000800000000FD
:10008000DB0000080000000000000000211E000846
:1000900000000000DB000008311E0008DB00000843
:1000A00000000000DB000008000000004D220008F6
:1000B0000448854600F0EAF9004800472D2700086B
:1000C000C046C046580700200448804704480047FF
:1000D000FEE7FEE7FEE7FEE7FEE7FEE71D1E00087F
:1000E000B100000830B50B46014600202022012453
:1000F00009E00D46D5409D4205D31D469540491B5C
:100100002546954040191546521E002DF1DC30BDA4
:10011000F0B51FB40646002082B005464024019188
:1001200000901BE0019922460F46304600F020F86F
:10013000049A059B801A994110D31046194622460D
:1001400000F0F4F8361A8F41019722460120002171
:10015000009F00F0EBF838184D4100902046641ED7
:100160000028DFDC019B00982946324607B0F0BD2D
:1001700010B5202A04DB0846203AD040002110BDEB
:100180000B46D340D0402024A21A91400843194680
:1001900010BD03460B439B0703D009E008C9121F9B
:1001A00008C0042AFAD203E00B780370401C491CF3
:1001B000521EF9D27047D2B201E00270401C491EB3
:1001C000FBD270470022F6E710B513460A460446F4
:1001D0001946FFF7F0FF204610BD0000F0B51FB430
:1001E00088B00B990998002448400999C00F49002C
:1001F00049080991C0070B990090490049080B91E3
:1002000009990898A64608431CD00B990A980843F8
:1002100018D0099801244000420D4800410D09986A
:1002200024050003000B204309900B980003000BEA
:1002300020430B9050181C4940180022019014468E
:10024000104605E0002001460DB0F0BD032801DA9C
:10025000034600E003239C46C11A0AAE0AE05F0091
:1002600008ADED5B4F00F75B7D430027AA187C418A
:10027000491C5B1E6145F2DD410004AB5A5221046A
:10028000120C0A43240C401C0828DFDB0198029062
:100290000099704601910090059B049A0799069871
:1002A00000F0A2F8D0E700000DFCFFFF70B54B0096
:1002B0005B0803430BD04B005C0D002633466542C0
:1002C000B341D417AD1AA34102DB0020014670BD33
:1002D00012053018514170BD0EB50549029100213B
:1002E00000910A460B46019100F07EF803B000BD74
:1002F00033040000CB0FDB07490010B54908024664
:100300000A4307D00A0D07240903E401090B121B55
:10031000002A01DC002010BDC900440F0C43C100BD
:10032000E018D205801800F011F810BD10B5202A91
:1003300004DB0146203A9140002010BD914020236B
:100340009C1A0346E3401943904010BD002904DA8B
:10035000401C490001D140084000704770B400249F
:10036000050C05D11024000402D1002921D011244C
:10037000050E01D100020834050F01D10001241D32
:10038000850F01D18000A41C002801DB4000641C03
:10039000002908D020252E1B0D46F540A14000D095
:1003A00001212943084301061B1B000ADB1D02D55E
:1003B000002070BC7047DB05181880180029F8DA97
:1003C000401C4900F5D170BC40084000704710B592
:1003D000002B08DA0024401C614192185B411A434B
:1003E00001D14008400010BDF0B51FB482B00546F1
:1003F0000C0003D0084601F031FF02E001F02EFFAF
:1004000020300246009021462846FFF78FFF049BCC
:10041000059A04460F4618431143084314D0184662
:1004200010431BD0009840210A1A18460599FFF77F
:100430009FFE05460E46009A05990498FFF776FF41
:10044000084305D0012004E02046394607B0F0BD3E
:100450000020C11705430E432C43374300990E98E3
:100460006305401A7905E40A00220C43FD0A0A30AC
:1004700002D500200146E9E70105101969410C9CED
:100480000D9D00196941FFF7A2FFDFE7064C01252A
:10049000064E05E0E36807CC2B430C3C984710342C
:1004A000B442F7D3FFF708FEB0270008D0270008B2
:1004B00010B5024800F02BF910BD00009C0100208F
:1004C00010B5024800F0EAFA10BD0000DC0100207F
:1004D00010B504460068054940181421FFF702FED4
:1004E000800020640248E06310BD0000F8FFFDBFFB
:1004F0000000024072B6FEE7F8B505460446203516
:10050000287D0026012808D00120287520688168F0
:100510008907890F012908D101E00220F8BD01688F
:10052000C9073CD1C168090439D4A16BFF2201324B
:10053000914302221143A163C1688907890F009189
:10054000C16889088900C1602068816892071143E9
:10055000816000F00DFC074612E000F009FCC01BB2
:1005600002280DD920688068002809DAA06B0221D2
:10057000884310210843A063002028750120F8BD9E
:10058000206880680028E8DB2068C168009A114371
:10059000C160A06B80088000401CA06304E0A06BD9
:1005A00020210843A0630126002028753046F8BDAD
:1005B000F8B50025044620340095227D012A39D063
:1005C0000122227503689E68760767D4384F4E680B
:1005D000BE424DD09E6A0F78BA4016439E620123F8
:1005E000C26A1B079A421FD0012A1DD0022A1BD0C3
:1005F000032A19D0042A17D0052A15D0062A13D0A9
:10060000072A11D002688B6856697607760FB342C5
:100610000AD05369DB08DB005361006842690B7A3A
:100620005B075B0F1A4342610A68102A04D0112A43
:1006300002D038E00220F8BD1E488368102A07D097
:1006400001229205134383600868102803D02AE032
:100650000122D205F6E7194817490068FFF742FD65
:100660000A21484300E0401E00900028FBD11AE018
:10067000986A0E78B240904398620968102901D0B8
:10068000112910D10B488268102904D00121890555
:100690008A43826007E00121C905F9E7816B2022C6
:1006A000114381630125002020752846F8BD000014
:1006B000011000000027014040420F0030000020E0
:1006C00030B50D480B4902680C4D93000C68EC5096
:1006D0000B4D4C68EC500B4D8C68EC500A4CC968C3
:1006E000E150092A02D30021016030BD521C026092
:1006F00030BD0000EC00002000000020FC000020C5
:10070000240100204C01002074010020704770B5C6
:10071000044600680168490702D54168490705D4C5
:100720000168090730D5416809072DD5A16BC906B5
:1007300004D4A16B012252021143A163C1680C25AC
:100740000905890F00291AD1A17E002917D1016856
:10075000090714D581684A070121002A08DB42688D
:10076000AA434260A06B0A0290430843A06306E0DC
:10077000A06B20221043A063E06B0843E063204697
:10078000FFF79EFF206805602068016809060DD507
:10079000406800060AD5A06B012109040843A06344
:1007A000204600F0D9F821688020086020680168A0
:1007B000C90613D54168C90610D5A16A10250129BB
:1007C00002D0C168C90707D0E16B02221143E1637F
:1007D00005602046FFF79AFF2068056070BD0000A5
:1007E000F8B500260446002805D0A06B2546203524
:1007F000002802D007E00120F8BD0020E063287542
:10080000204600F0ABF8A06B1022C006002870DB79
:100810002068816849076CD4A16B130199430223B6
:100820001943A16381688907890F012905D10168EE
:10083000C9070FD1C16809040CD4C16818239943B2
:10084000A3681943C1602068016963688900890849
:10085000194301612068C1683D4B1940C160207E89
:10086000617E8003C9030843A17E4B031843A36A3A
:10087000012B02D001231B0300E000231843E3688F
:1008800018432369022B09D0002318432B79E57EF6
:100890005B0018430123012D02D00AE00423F4E792
:1008A000002927D0A16B20252943A163E16B1943BF
:1008B000E163E1690D46FF3DC23D02D0256A29434F
:1008C00008432168CD680543CD600125E16A2D0705
:1008D000A94213D0012911D002290FD003290DD02C
:1008E00004290BD0052909D0062907D0072905D0EE
:1008F00010E028E0012109040843DAE721684D6986
:10090000ED08ED004D6121684D69A78D7F077F0FD0
:100910003D434D612168C9680E4D2940814207D190
:100920000020E063A06B80088000401CA06308E00A
:10093000A06B022188431043A063E06B1843E0637F
:1009400001263046F8BDA06B1043A063F8E7000015
:100950001902FEFFE7FF3F8370470000F0B587B044
:10096000054614216846FFF72DFC25492868884272
:1009700043D1244988694E153043886188693040E5
:1009800005904A69300202434A614A690240059271
:100990004A69400002434A614969032401400591C4
:1009A000E02000276A4691C209206946C00600F08F
:1009B000FFF802206A4691C26946134800F0F8F831
:1009C0001248134C81C427608020A66060602761B4
:1009D00000016761E0600E48083C00F0ADF80028B7
:1009E00001D0FFF787FD2C63002211460C206562C1
:1009F00000F01EFA0C2000F00FFA07B0F0BD000066
:100A00000024014000100240000400480800024099
:100A1000DC01002030B5014620314B780022022B4A
:100A200004D0042383630A70012030BD03681C686E
:100A30000E25AC431C6003681C68640864001C60DD
:100A40000123056C1C46C06BAC4044604B700A70BF
:100A5000002030BD70B50024014620314A78022ABA
:100A600003D004218163012416E0026813680E2577
:100A7000AB431360026813685B085B0013600122DC
:100A8000056C1346AB40C56B6B604A7000220A7060
:100A9000416B002900D08847204670BDF0B4C16B7F
:100AA0000D6801680C680422066C1346B3402B42A3
:100AB0000DD063070BD50B689B0602D40B689343DC
:100AC0000B60016C8A40C16B4A60C16A19E0022761
:100AD000B74002462F4001232032002F15D0A70730
:100AE00013D50C68A40604D40C680A25AC430C602A
:100AF0005370036C02219940C36B5960002111703F
:100B0000816A002916D0F0BC08470827B7402F4259
:100B100010D024070ED50C680E25AC430C60046C75
:100B20001946A140C46B616083635370002111704A
:100B3000016BE6E7F0BC704770B5040021D00221DC
:100B40002046203005464170226811680E48A3688F
:100B50000140606826691843E368334318436369BA
:100B60001843A3691843E3691843084310602046FB
:100B7000FFF7AEFC0021A1630120687029700846D0
:100B800070BD012070BD00000FC0FFFF70B50446AE
:100B900000F0EEF80546601C02D0044800782418E6
:100BA00000F0E6F8401BA042FAD370BD24000020FC
:100BB000F8B5002303240125BAE02E469E40B44632
:100BC00032407CD00E79B607B60F012E01D0022E2E
:100BD00017D186682746B6465E00B740009676462F
:100BE000BE43B646CF68009EB7407646374387601F
:100BF00046686746BE430F79FF06FF0F9F403743A5
:100C000047600E79F643B6070ED0C6682746B4464D
:100C10005E00B646B7406646BE43B4468F68764629
:100C2000B74066463743C7600E79B607B60F022E47
:100C300014D1DE08B60036180096366A5F07B4464F
:100C4000FE0E0F27B646B7406646BE43B4460F6950
:100C50007646B74066463743009E376206682746A9
:100C6000B4465E00B646B7406646BE430F79B4460A
:100C7000BF07BF0F7646B7406646374307604E68EA
:100C8000B603B60F53D02D4FBE692E43BE61BE6969
:100C90009F08F607F60F2A4EBF00BE190096B668E9
:100CA0000F27B4469E07360FB646B7406646BE438A
:100CB0000927FF06B446B84202D1002710E036E00B
:100CC000204FB84201D101270AE01F4FB84201D19D
:100CD000022705E01D4FB84201D1032700E0052798
:100CE0007646B74066463743009EB760184E366872
:100CF0004F689643FF0300D51643154F3E607E684C
:100D00004F689643BF0300D51643114F7E60BE68FF
:100D10004F689643FF0200D516430D4FBE60FE6834
:100D20004F689643BF0200D51643094AD6605B1C44
:100D30000A681646DE4000D03FE7F8BD00100240CA
:100D4000000001400004004800080048000C004872
:100D500000040140426913460B401B0491430B43BE
:100D600083617047002A01D08161704781627047BA
:100D70000148806870470000240000200248816814
:100D800002788918816070472400002010B5064859
:100D90000168102211430160002000F007F800F004
:100DA00027F8002010BD00000020024070B5044666
:100DB0000D4D7D202978C000FFF794F901460B48BE
:100DC0000068FFF78FF900F087FB002809D1042C99
:100DD00007D200222146401E00F02AF800206C6055
:100DE00070BD012070BD00002400002030000020F4
:100DF00008B5084881690122114381618169114068
:100E00000091C26901040A43C261C06908400090B0
:100E100008BD000000100240002805DBC106C90E15
:100E200001208840014908607047000000E100E0AF
:100E300010B501F043FA10BDF8B505460068354C11
:100E4000C00352D5E0690026C00007D4E169200440
:100E50000143E161E1690140012600912E480168EA
:100E6000C90510D40168821511430160FFF780FFA6
:100E7000074604E0FFF77CFFC01B642824D82648FF
:100E80000068C005F6D5206A03273F02384020D00D
:100E90006968394081421CD0206A226AB843012126
:100EA00009040A432262226A8A4322622062C0073E
:100EB0000FD0FFF75DFF009008E0FFF759FF0099A2
:100EC000411A1648814201D90320F8BD206A8007E3
:100ED000F3D5206A6968B84308432062002E04D025
:100EE000E169012000078143E1612878C00705D04E
:100EF000206BA9688008800008432063287880065A
:100F000005D5206B10218843E96808432063002041
:100F1000F8BD00000010024000700040881300007F
:100F2000F8B50F46060059D03A4D2868C007C00FE3
:100F3000B84209D228684008400038432860286831
:100F4000C007C00FB84249D13068334C81070CD577
:100F5000400704D5606807210902084360606068A3
:100F6000F0218843B168084360603078C00726D01C
:100F7000706801280ED0216802280ED08907002948
:100F80002CDA61688908890001436160FFF7F0FE8F
:100F900000900DE021688903F1E78901EFE7FFF791
:100FA000E7FE0099411A1D48814201D90320F8BD8E
:100FB00060680C210840716889008842EFD1286878
:100FC000C007C00FB8420BD928684008400038431A
:100FD00028602868C007C00FB84201D00120F8BDC2
:100FE0003078400706D56068072109028843F16818
:100FF0000843606000F028F86168094A0906090F93
:10100000515CC840074908600020FFF7CFFE002070
:10101000F8BD0000002002400010024088130000CC
:1010200098270008300000200448054900684968F6
:10103000044A4905490F515CC84070473000002000
:1010400000100240A827000810B514A30FCB88B0E9
:101050006C460FC415A30FCB0FC4184A51680C205F
:101060000B4603401648042B16D0082B14D18B02D4
:101070001B0F6C46E45CD26A04AB1207120F9A5C39
:10108000C90305D500231946FFF742F8214601E0C0
:1010900020460C4901F0F9F808B010BD0203040520
:1010A000060708090A0B0C0D0E0F101001020304AD
:1010B00005060708090A0B0C0D0E0F100010024060
:1010C00000127A0000093D00FEB5040070D02078BF
:1010D000DC4DC0074AD068680007800F012807D0A0
:1010E00068680007800F022809D16868C00306D528
:1010F000286880033AD560680028E7D036E0616848
:10110000012914D001208004002901D0052914D020
:101110002A68012109048A432A60296881432960D9
:101120006068002816D0FFF723FE06460EE0286808
:101130000121090408432860F2E729680143296076
:10114000F5E7FFF715FE801B64286ED8286880033A
:10115000F7D50BE0FFF70CFE064604E0FFF708FEAC
:10116000801B6428F1D828688003F7D420780126F2
:10117000800700283CDA68680007800F07D068689D
:101180000007800F022809D16868C00306D42868C8
:10119000800716D5E06801280AD112E0E06800282F
:1011A000286816D030432860FFF7E2FD074605E0C7
:1011B00043E1FFF7DDFDC01B0228C6D82868800781
:1011C000F7D52868F82188432169C90008432860B9
:1011D0000EE0400840002860FFF7CAFD074604E023
:1011E000FFF7C6FDC01B0228AFD828688007F7D4D8
:1011F0002078000722D5E0690028686A0ED03043C5
:101200006862FFF7B5FD074604E0FFF7B1FDC01BBC
:1012100002289AD8686A8007F7D50FE04008400096
:101220006862FFF7A5FD074605E09DE0FFF7A0FD1A
:10123000C01B022889D8686A8007F7D42078042761
:101240004007002860DA00200190E869C00008D457
:10125000E969B8060143E961E969014001200091AB
:10126000019079480168C90511D4016882151143BC
:101270000160FFF77DFD009005E0FFF779FD009923
:10128000401A642870D870480068C005F5D5A06879
:1012900001280AD0002801D0052810D0286A40086B
:1012A00040002862286AB84301E0286A3043286277
:1012B000A068002812D0FFF75BFD00900AE0286AC2
:1012C00038432862F1E7FFF753FD0099411A5F4860
:1012D000814249D8286A8007F5D50DE0FFF748FD1F
:1012E000009006E0FFF744FD0099411A57488142FB
:1012F0003AD8286A8007F5D40198002804D0E96913
:10130000012000078143E9612078C00635D5606976
:1013100001280CD0401D686B23D038436863686B8C
:10132000400840006863FFF723FD064622E0686B33
:1013300038436863686B30436863FFF719FD0646FE
:1013400004E0FFF715FD801B02285BD8686B80075F
:10135000F7D5686BF8218843A169C9000843686321
:101360000BE0B8436863F4E74CE0FFF701FD801B36
:10137000022847D8686B8007F7D4206A00285ED01F
:1013800069680907890F022942D00126360602281A
:10139000286805D0B0432860FFF7EAFC044633E034
:1013A000B0432860FFF7E4FC074604E0FFF7E0FCE9
:1013B000C01B022826D828688001F7D4E86AE16AB1
:1013C000000900010843E862616AA06A084369688D
:1013D0003D22120491430843686028683043286026
:1013E000FFF7C6FC044604E0FFF7C2FC001B02281E
:1013F00008D828688001F7D521E0FFF7B9FC001B69
:10140000022801D90320FEBD28688001F5D416E02A
:101410000128F8D06868E96A01221204636A024070
:101420009A420AD10907E26A090F914205D10F21B8
:1014300089040840A16A884201D00120FEBD002035
:10144000FEBD000000100240007000408813000044
:10145000F8B51D4616460F46040003D0A06F0028BD
:1014600002D007E00120F8BD00217420015520467C
:1014700000F06EFB2420A06720680168490849003D
:101480000160204600F0EAFD0128ECD0606A0028E7
:1014900002D0204600F010FD2068816801229203EE
:1014A0001143816021688868520090433843886006
:1014B00071052804226808431168064B194001434E
:1014C000116020680168012211430160204600F08C
:1014D00059FDF8BDFFFF00FC094910B5401E8842C8
:1014E00001D9012010BD074C60610321081F00F0E5
:1014F000E5FE0020A06107202061002010BD000053
:10150000FFFFFF0000E000E07047704770B5040087
:1015100005D025462035687F002802D006E001204E
:1015200070BD00202877204600F014F8022068776C
:10153000211D206800F084FC01204034A071A877B0
:10154000E87720706070A070E0702071607168773B
:10155000002070BD08B5134A0168134891420DD1AF
:10156000C26981150A43C261C06900220840009027
:1015700001211320FFF75CFC132010E00B4A91427D
:101580000FD18269012189040A43826180690022A6
:101590000840009003211620FFF74AFC1620FFF7B1
:1015A0003BFC08BD00200040001002400048014004
:1015B000014620314A7F012A01D0012070470222D2
:1015C0004A770268D36801210B43D3600068084A58
:1015D000904202D0074A904204D182685207520FCB
:1015E000062A02D002680A43026000207047000009
:1015F000002C014000040040704770B504460068AC
:1016000001690025C9438907002915DBC168C94361
:10161000890711D4E91E01610120207720688069C3
:101620008007204602D0FFF7E7FF04E000F096F8BD
:10163000204600F094F8257720680169C9434907DE
:1016400017D4C168C943490713D40421C9430161B0
:1016500002202077206880698005800F204602D014
:10166000FFF7CAFF04E000F079F8204600F077F8B1
:10167000257720680169C943090716D4C168C943A1
:10168000090712D40821C94301610420207720688A
:10169000C0698007204602D0FFF7AEFF04E000F0EB
:1016A0005DF8204600F05BF8257720680169C943A2
:1016B000C90617D4C168C943C90613D41021C94348
:1016C0000161082020772068C0698005800F2046CE
:1016D00002D0FFF791FF04E000F040F8204600F050
:1016E0003EF8257720680169C943C90708D1C16858
:1016F000C943C90704D1891E0161204600F030F8B2
:1017000020680169C943090609D4C168C9430906AB
:1017100005D48021C94301612046FFF7F5FE20680A
:101720000169C943490609D4C168C943490605D4BA
:101730004021C9430161204600F0C0F820680169DA
:10174000C943890609D4C168C943890605D4202143
:10175000C94301612046FFF7D8FE70BD704770474E
:10176000F1B5009843490068884279D1424F002082
:10177000424C3860424D2060424E28603060424A00
:10178000810052583B68401CD2183A603F4A236897
:101790005258D21822603E4A2B685258D2182A60FA
:1017A0003C4A51583268891831600A28E7DB0A211F
:1017B0003868FEF797FC386007460A212068FEF774
:1017C00091FC206004460A212868FEF78BFC286003
:1017D00005460A213068FEF785FC3060064638462B
:1017E000FEF77AFD0B22D243FEF760FD2A4A2B4B0F
:1017F000FEF7F4FCFEF77EFD294908602046FEF75F
:101800006BFD0B22D243FEF751FD234A234BFEF71B
:10181000E5FCFEF76FFD234908602846FEF75CFDF6
:101820000B22D243FEF742FD1B4A1C4BFEF7D6FCAF
:10183000FEF760FD1C4908603046FEF74DFD0B22A7
:10184000D243FEF733FD144A144BFEF7C7FCFEF7F4
:1018500051FD1649086016490F804C808D80CE805E
:10186000009814490068884202D1134800688047F4
:10187000F8BD0000004801400400002008000020DE
:101880000C00002010000020FC000020240100209B
:101890004C010020740100206666666666660A4098
:1018A00014000020180000201C0000202000002050
:1018B000E2000020002000405C00002070477047DC
:1018C00070470000F8B502680446D0691168966850
:1018D0009C4B05461D402023002D75D0F7079A4DDF
:1018E000FF0FBC460D402F436DD02546C7078035FE
:1018F000002F06D0CF0504D5012717622A683A4386
:101900002A60820708D5F20706D0276802223A62C9
:101910002A6804273A432A60420708D5F20706D00E
:101920002668042232622A68022632432A600207AD
:101930000AD50A461A406646324305D02668082270
:1019400032622E6816432E60020508D54A0106D57C
:1019500001222668D20232622A681A432A602A6863
:10196000002A39D0800606D5880604D5616E002984
:1019700001D020468847286821688968490602D432
:10198000282108422DD0204600F038FB21688868C5
:10199000400622D5EFF31080012282F310888B6875
:1019A000402293438B6080F31088206F002814D06E
:1019B00066494163206FFFF74DF800280CD0206F77
:1019C000416B08E000E012E0850610D58D060ED5CB
:1019D000616E9DE020468847F8BD2046FFF770FF06
:1019E000F8BD2046FFF76CFF00202860F8BD256E8B
:1019F000012D7DD1C5067BD5CD0679D51026166281
:101A000022689068254640064035002845DA216F57
:101A1000086840680004000CE8D02F8B8742E5D9A5
:101A200068838869202833D0EFF31080012181F387
:101A3000108811683701B943116080F31088EFF303
:101A40001080012181F3108821688A6852085200B1
:101A50008A6080F31088EFF31080012181F31088F1
:101A600021688A684027BA438A6080F31088E36758
:101A700000202066EFF31080012181F31088216897
:101A80000A68B2430A6080F31088206FFEF7C2FF35
:101A9000288B698B401A81B231E0288B698B401A00
:101AA00081B2688B0028A1D000299FD0EFF310806D
:101AB000012585F310881568FF272137BD43156080
:101AC00080F31088EFF31080012282F310882268DF
:101AD00095686D086D00956080F31088E3670020BD
:101AE00020666066EFF31080012282F3108800E028
:101AF00009E022681368B343136080F3108820461E
:101B0000FFF7DDFEF8BD050606D50D0604D5A16E6E
:101B1000002900D05EE7F8BD4006FCD54806FAD59E
:101B20002046EFF31081012484F3108814684025C7
:101B3000AC43146081F3108883670021816600F054
:101B40003FF8F8BD0F08000020010004E91F00085D
:101B500010B586B0044614216846FEF733FB1649DB
:101B60002068884226D115488269012189030A43E9
:101B7000826182690A4005924269C9000A43426152
:101B80004069084005900E2000900220019000203E
:101B90000290032003900120049009206946C006AA
:101BA000FFF706F8002202211B20FFF741F91B2056
:101BB000FFF732F906B010BD0038014000100240B6
:101BC0007047FEE73EB50021264800910191029141
:101BD000416081600124224A04610260C1600422E4
:101BE0004261017641768176FF22C176C232C261BE
:101BF00002460162203211718462FEF7F1FD002875
:101C000001D0FEF777FC0520009001200003019031
:101C1000694602941348FEF7CBFC002801D0FEF77A
:101C200069FC0620009069460E48FEF7C1FC0028BA
:101C300001D0FEF75FFC0720009069460948FEF7D7
:101C4000B7FC002801D0FEF755FC0920009069463A
:101C50000448FEF7ADFC002801D0FEF74BFC3EBD6A
:101C6000002401409C01002008B508484169012278
:101C70001143416140691040002200901146092043
:101C8000FFF7D6F80920FFF7C7F808BD001002409B
:101C900030B587B014216846FEF794FA11484269BE
:101CA000012149040A43426142690A40059242699E
:101CB00049000A4342614069092508404C12ED067B
:101CC0000590002221462846FFF74CF8002101200C
:101CD000029103910190009469462846FEF768FF3F
:101CE00007B030BD0010024010B50A480849016035
:101CF0000949416000218160084A0161C260816137
:101D0000FFF704FC002801D0FEF7F4FB10BD000033
:101D100000200040200200205F090000FFFF0000BB
:101D200010B50B48094901604B2189014160002130
:101D30008160084A0161C260416180218161FFF7D1
:101D4000E5FB002801D0FEF7D5FB10BD004801409F
:101D5000680200208813000010B50D480B4901608F
:101D6000E1214902416000218160C160016181611E
:101D7000C1610C22016242610B4641620A46FFF7D3
:101D800067FB002801D0FEF7B5FB10BD003801400D
:101D9000B0020020FEE77047704710B5FEF7EEFF77
:101DA00010BD70B594B030216846FEF70BFA0024E0
:101DB00001250F9412200595009010200E94109488
:101DC0001394049006900D9405201294C0040C9472
:101DD000039502260A901194089609940B9468467C
:101DE000FFF772F9002801D072B6FEE707200C90C9
:101DF0000E9401210D960F940CA8FFF791F800287E
:101E000001D072B6FEE710A810951294FFF714F8EF
:101E1000002801D072B6FEE714B070BD7047000014
:101E200010B50248FFF7E9FB10BD000020020020BA
:101E300010B50248FFF7E1FB10BD0000680200206A
:101E400070B50268174B184E984201D0B04203D1CA
:101E50007024A2434C682243144C154D984208D07C
:101E6000B04206D0134EB04203D0A04201D0A842E7
:101E700004D103263602B243CE6832438026B243F1
:101E80004E69324302608A68C2620A68826298427E
:101E900003D0A04201D0A84201D109690163012108
:101EA000416170BD002C014000040040004401402D
:101EB000004801400020004010B5818CC90707D0C0
:101EC00001684A6801235B049A43836A1A434A60A3
:101ED000818C890707D501684A6801231B049A434E
:101EE000C36A1A434A60818C490707D501684A686A
:101EF00001239B049A43036B1A434A60818C0907B0
:101F000007D501684A680123DB039A43436B1A43F0
:101F10004A60818CC90607D50268916801231B03BA
:101F20009943836B19439160818C890607D50168B9
:101F30008A6801235B039A43C36B1A438A60818CCE
:101F4000490612D503685A6801210905046C8A43C1
:101F500022435A60026C8A4207D102685168032307
:101F60005B059943436C19435160818C090607D581
:101F700001684A680123DB04806C9A4302434A608B
:101F800010BD0000F8B50446002680300660FEF75C
:101F9000EFFE054620680068124F000709D50121B1
:101FA0002B46002249052046009700F0E5F800285E
:101FB0000DD12068006840070BD501212B46002277
:101FC00089052046009700F0D7F8002801D00320AB
:101FD000F8BD2020A067E0672666603426750020E3
:101FE000F8BD0000FFFFFF0110B5406A0022014666
:101FF00040314A834A82FFF763FC10BD10B5EFF30E
:102000001081012282F3108802681368FF242134B2
:10201000A343136081F31088EFF31081012282F350
:102020001088026893685B085B00936081F31088F6
:10203000016E01290BD1EFF31081012282F3108888
:10204000026813681024A343136081F310882021D1
:10205000C16700210166416610BD000070B50446ED
:1020600080682169E26908436169002511430843DA
:1020700021680A683C4B1A4002430A60216848689C
:10208000032212039043E26810434860A169206A6A
:10209000084321688A680B231B029A4302438A6023
:1020A0003248006B8007800F16D0012818D0022814
:1020B00018D0032812D010210120E369C0032C4A54
:1020C0002C4E83422BD100290ED002290FD0042997
:1020D0000FD008293FD110E00021EDE70221EBE706
:1020E0000421E9E70821E7E7FEF79EFF03E0104639
:1020F00003E0FEF7A9FF002831D0616840004A08DC
:102100008018FDF7EFFF80B201461039B14222D8A6
:102110001849491C01400007400F08431DE00029F1
:1021200006D0022907D0042907D0082913D108E0D6
:10213000FEF77AFF03E0104603E0FEF785FF002874
:102140000DD061684A081018FDF7CCFF80B2014637
:102150001039B14201D9012501E02168C860002091
:102160006066A066284670BDF369FFFF001002405C
:1021700000127A00EFFF0000FFB581B00546174658
:10218000044660350A9E55E0701C53D0FEF7F0FD02
:102190000499401AB04230D8002E2ED02068016831
:1021A000490747D5C069C043000543D401202168D1
:1021B000C0020862EFF31080012181F310882168CA
:1021C0000B68FF22A13293430B6080F31088EFF37A
:1021D0001080012181F3108821688A68520852001A
:1021E0008A6080F310882020A067E0678034206038
:1021F00000202875032005B0F0BDEFF31080012109
:1022000081F3108821680B68FF22A13293430B6091
:1022100080F31088EFF31080012181F3108821688A
:102220008A68520852008A6080F310882020A067D4
:10223000E067DDE72068C1690298884304D0002088
:10224000B842A1D00020D6E70120F9E710B5024836
:10225000FFF738FB10BD0000B00200202021020C67
:1022600001D010211046020A01D010460839020997
:1022700001D01046091F820801D01046891E42086D
:1022800001D0881E7047081A7047F8B5040C8BB24D
:10229000264682B25E430D0C1046370C5843360476
:1022A00080190021794116466E43370C3604801997
:1022B000794126466E438919F8BD00008307FF2245
:1022C000DB0E9A408907090E9940002808DB830835
:1022D00009489B001B181868904308431860704712
:1022E0000007000F0838830804489B001B18D869B2
:1022F00090430843D861704700E400E000ED00E03F
:1023000002E008C8121F08C1002AFAD170477047BE
:10231000002001E001C1121F002AFBD1704700001C
:1023200070B50C460988002505292ED14178184E34
:102330000A0281781143C278491C1302027989B2DA
:102340001A43531EB34220D200232380012303707B
:1023500023885B1C2380401C530702D0D3085B1CDE
:1023600000E0D308DEB206702388401C5B1C23808B
:10237000002300F0A3F9002803D000F001FA05467D
:1023800004E020888019208000E00325284670BDE5
:10239000CF07000070B50C460988002505292DD10E
:1023A0004178184E0A0281781143C278491C130201
:1023B000027989B21A43531EB3421FD200232380ED
:1023C0000223037023885B1C2380401C530702D028
:1023D000D3085B1C00E0D308DEB206702388401CE3
:1023E0005B1C238000F06CF9002803D000F0C8F9D2
:1023F000054604E020888019208000E00325284657
:1024000070BD0000CF07000070B50C46098800259C
:10241000052923D141780A02817811430279491CA8
:10242000531E89B27C2B19D8002323800323037009
:10243000238856005B1C238046702388801C5B1C0D
:102440002380002300F03EF9002803D000F098F923
:10245000054604E020888019208000E003252846F6
:1024600070BD70B50C4609880025052925D1417835
:102470000A0281781143C278491C1302027989B299
:102480001A43531E7C2B18D200232380042303708D
:10249000238856005B1C238046702388801C5B1CAD
:1024A000238000F041F9002803D000F069F90546C7
:1024B00004E020888019208000E00325284670BDB4
:1024C000F8B50446088800270D460A2844D36078EA
:1024D0000102A0780843401C80B20090E078267981
:1024E000000206436079227A0102A079731E084334
:1024F000401C81B2E07900020243607A7C2B2AD82A
:10250000002A28D0792A26D85300834223D1204696
:1025100001230A3000F0D6F8002814D100212980C8
:10252000172121702988601C491C298074000470BF
:1025300029880023491C29803246401C009900F05C
:10254000C1F8002803D000F01BF9074604E02888F2
:102550000019288000E003273846F8BD70B5064C06
:102560000D4622880549401CFDF713FE2088401CBB
:102570002880002070BD0000E0000020340300200F
:1025800038B50988002405290DD141780A028178DF
:102590001143491C027989B2002A04D1C278FF2A6A
:1025A00004D0002A02D00324204638BD00226B4606
:1025B0005A70C078FF280BD01A7001231A4668465B
:1025C00000F07CF80028EFD000F0DAF80446EBE7E2
:1025D00001201870F1E710B509880024052902D000
:1025E0000324204610BD417801230A028178C01CD3
:1025F0001143491C89B21A4600F064F80028F0D053
:1026000000F0BEF80446ECE7F8B50D460988002452
:10261000052926D9417846790A0281781143491C57
:1026200089B28C46C178027909020A43510702D067
:10263000D108491C00E0D1080B4F531EC9B2BB4260
:102640000FD8B1420DD101236146801D00F036F84C
:10265000002803D000F094F8044603E00520288009
:1026600000E003242046F8BDAF07000070B50D461A
:102670000988002406291ED341780A028178114373
:10268000C278491C1302027989B21A434379561E53
:10269000772E10D85606360E9E420CD10123801D8F
:1026A00000F010F8002803D000F06AF8044603E0B8
:1026B0000520288000E00324204670BD01207047DB
:1026C00001207047F0B50025002927D08C18052C73
:1026D00024D8491E134C09B2002B0DD0012B1ED15A
:1026E00019E04B00E65A491C360A0670E35C521E9C
:1026F000437009B292B2801C002AF2D10FE0037835
:102700004E001B02A3534778491C1F43521EA75378
:1027100009B292B2801C002AF1D100E001252846BE
:10272000F0BD0000E200002001207047FEF72EFB04
:10273000FFF737FBFFF7ACFAFFF796FAFFF742FA1D
:10274000FFF7EEFAFFF7D0FAFFF706FB0A48FEF7AD
:102750002FFF0A48FDF7D0FE0924E4067D252D0150
:1027600004212046FEF7F6FA08212046FEF7F2FA89
:102770002846FEF70BFAF3E7680200209C010020D0
:10278000002804D0012803D0072803D00420704774
:102790000220704706207047000000000000000083
:1027A00001020304060708090000000001020304F7
:1027B000D027000800000020EC00000000230008E3
:1027C000BC280008EC0000206C0600001023000864
:1027D00000000000000000000000000000000000F9
:1027E00000000000000000000000000000000000E9
:1027F00000000000010000000400000000000000D4
:1028000000127A000200000000000000000000003A
:1028100000000000000000000000000000000000B8
:1028200000000000000000000000000000000000A8
:10283000110000005D25000804000000632400086A
:102840000300000009240008100000006D260008A5
:1028500006000000D725000817000000C12400086A
:102860000100000021230008050000008125000868
:102870000F00000009260008020000009523000850
:102880000000000000000000000000000000000048
:102890000000000000000000000000000000000038
:1028A0000000000000000000000000000000000028
:0C28B00000007B148E3F7B140E400000E3
:04000005080000B13E
:00000001FF
