:020000040800F2
:1000000028060020C500000885190008C11700084F
:1000100000000000000000000000000000000000E0
:100020000000000000000000000000008919000826
:100030000000000000000000871900088B1900086C
:10004000D700000800000000D7000008D700000813
:10005000D7000008D7000008D7000008D700000824
:100060000000000029030008D7000008D70000089E
:10007000F9010008111A0008D7000008000000006C
:10008000D70000080000000000000000D7000008B2
:1000900000000000D7000008D7000008D7000008C3
:1000A00000000000D700000800000000D700000892
:1000B0000348854600F08EF800480047611F00089D
:1000C000280600200448804704480047FEE7FEE772
:1000D000FEE7FEE7FEE7FEE70D1A0008B1000008A4
:1000E00030B50B46014600202022012409E00D46D0
:1000F000D5409D4205D31D469540491B2546954058
:1001000040191546521E002DF1DC30BDF0B51FB46C
:100110000646002082B005464024019100901BE075
:10012000019922460F46304600F020F8049A059BBC
:10013000801A994110D310461946224600F039F82A
:10014000361A8F410197224601200021009F00F0BE
:1001500030F838184D4100902046641E0028DFDC3E
:10016000019B00982946324607B0F0BD10B5202A01
:1001700004DB0846203AD040002110BD0B46D34096
:10018000D0402024A21A91400843194610BDD2B293
:1001900001E00270401C491EFBD270470022F6E7C6
:1001A00010B513460A4604461946FFF7F0FF2046ED
:1001B00010BD10B5202A04DB0146203A91400020F2
:1001C00010BD914020239C1A0346E3401943904000
:1001D00010BD0000064C0125064E05E0E36807CC83
:1001E0002B430C3C98471034B442F7D3FFF764FF1D
:1001F000B41F0008D41F000810B5024800F074F9BD
:1002000010BD0000D400002010B50146406A826B8A
:1002100050231A420AD1816B012252021143816399
:100220000168CA681205920F05D020E0006B026BCE
:100230000846904710BD827E002A18D10A6812072E
:1002400015D58A6853070122002B09DB4B680C2463
:10025000A3434B60816B130299431143816306E012
:10026000816B202319438163C16B1143C16300F08B
:1002700013F910BD10B5406A816B402211438163B0
:10028000C16B04221143C16300F02DF910BD10B5FC
:10029000406A00F027F910BDF8B504460020009030
:1002A000206881688907890F012905D10168C9077C
:1002B00031D1C16809042ED48168184A1026114032
:1002C000012500291AD18168294381601548144904
:1002D0000068FFF705FF00E0401E00900028FBD1FA
:1002E00000F052FC074611E000F04EFCC01B022853
:1002F0000CD920680068C043C00707D0A06B30430A
:10030000A063E06B2843E0630120F8BD206800682B
:10031000C043C007E8D10020F8BD000017000080EE
:1003200040420F002000002010B5024800F0ACFA57
:1003300010BD00001401002010B5044600680549F6
:1003400040181421FFF7CCFE800020640248E063CF
:1003500010BD0000F8FFFDBF0000024030B5056C85
:100360000124AC40C56B6C60046863604368102B6B
:10037000036803D099600068C26030BD9A6000686D
:10038000C16030BD72B6FEE7F8B5002504462034E2
:100390000095227D012A39D00122227503689E68CA
:1003A000760767D4384F4E68BE424DD09E6A0F78AC
:1003B000BA4016439E620123C26A1B079A421FD0AD
:1003C000012A1DD0022A1BD0032A19D0042A17D0D3
:1003D000052A15D0062A13D0072A11D002688B6887
:1003E00056697607760FB3420AD05369DB08DB0003
:1003F0005361006842690B7A5B075B0F1A434261E5
:100400000A68102A04D0112A02D038E00220F8BD70
:100410001E488368102A07D0012292051343836087
:100420000868102803D02AE00122D205F6E719480F
:1004300017490068FFF754FE0A21484300E0401EB8
:1004400000900028FBD11AE0986A0E78B2409043E1
:1004500098620968102901D0112910D10B488268CF
:10046000102904D0012189058A43826007E0012117
:10047000C905F9E7816B2022114381630125002022
:1004800020752846F8BD000001100000002701403B
:1004900040420F002000002030B50D480B49026893
:1004A0000C4D93000C68EC500B4D4C68EC500B4D10
:1004B0008C68EC500A4CC968E150092A02D300212B
:1004C000016030BD521C026030BD000024000020DD
:1004D00000000020340000205C0000208400002088
:1004E000AC0000207047704770B504460068016892
:1004F000490702D54168490705D40168090730D585
:10050000416809072DD5A16BC90604D4A16B01224E
:1005100052021143A163C1680C250905890F002906
:100520001AD1A17E002917D10168090714D5816865
:100530004A070121002A08DB4268AA434260A06BF7
:100540000A0290430843A06306E0A06B20221043F8
:10055000A063E06B0843E0632046FFF79DFF20683F
:1005600005602068016809060DD5406800060AD5B7
:10057000A06B012109040843A063204600F0D6F8CF
:1005800021688020086020680168C90613D5416889
:10059000C90610D5A16A1025012902D0C168C90772
:1005A00007D0E16B02221143E16305602046FFF7AB
:1005B0009AFF2068056070BDF8B500250446002844
:1005C00005D0A06B26462036002802D007E0012087
:1005D000F8BD0020E0633075204600F0A9F8A06B5C
:1005E0001022104270D12068816849076CD4A16B39
:1005F0001301994302231943A16381688907890F75
:10060000012905D10168C9070FD1C16809040CD4BB
:10061000C16818239943A3681943C1602068016920
:10062000636889008908194301612068C1683D4BEE
:100630001940C160207E617E8003C9030843A17E0A
:100640004B031843A36A012B02D001231B0300E0D4
:1006500000231843E36818432369022B09D00023C1
:1006600018433379E67E5B0018430123012E02D044
:100670000AE00423F4E7002927D0A16B20263143A8
:10068000A163E16B1943E163E1690E46FF3EC23E9F
:1006900002D0266A314308432168CE680643CE6003
:1006A0000126E16A3607B14213D0012911D002298F
:1006B0000FD003290DD004290BD0052909D0062914
:1006C00007D0072905D010E028E0012109040843DC
:1006D000DAE721684E69F608F6004E6121684E6936
:1006E000A78D7F077F0F3E434E612168C9680E4E7C
:1006F0003140814207D10020E063A06B8008800078
:10070000401CA06308E0A06B022188431043A06353
:10071000E06B1843E06301252846F8BDA06B104349
:10072000A063F8E71902FEFFE7FF3F837047000070
:1007300070B586B0064614216846FFF72FFD25499F
:100740003068884244D124498A69401502438A614D
:100750008A69024005924A69000202434A614A6975
:10076000024005924A69400002434A6149690324F4
:1007700001400591E02000256A4631C20920694602
:10078000C00600F02FF902206A4631C269461348BC
:1007900000F028F91248134C21C4802025606060C5
:1007A0004000A060256180006561E0600D48083C64
:1007B00000F0B8F8002801D0FFF7E4FD3463002210
:1007C00011460C20666200F03FFA0C2000F030FA6F
:1007D00006B070BD00240140001002400004004833
:1007E0000800024014010020F7B504460068002507
:1007F000806840073DD426462036307D01280AD047
:1008000001273775607E012807D02046FFF744FD99
:10081000050002D02EE00220FEBDA06B1649084064
:10082000FF2101310843A0630020E0633075216B94
:1008300012488862216B1248C862216B1148086314
:1008400021681C2008602068416810221143416023
:100850002068C1683943C1602168206B4031029B28
:10086000019A00F089F820688168042211438160B0
:1008700000E002252846FEBDFEF1FFFF0902000848
:100880008F02000875020008F0B4C16B0D680168A2
:100890000C680422066C1346B3402B420DD063074C
:1008A0000BD50B689B0602D40B6893430B60016C5D
:1008B0008A40C16B4A60C16A19E00227B74002460C
:1008C0002F4001232032002F15D0A70713D50C6825
:1008D000A40604D40C680A25AC430C605370036C66
:1008E00002219940C36B596000211170816A00296F
:1008F00016D0F0BC08470827B7402F4210D0240775
:100900000ED50C680E25AC430C60046C1946A14052
:10091000C46B61608363537000211170016BE6E763
:10092000F0BC704770B5040021D002212046203071
:1009300005464170226811680E48A368014060684E
:1009400026691843E3683343184363691843A3696E
:100950001843E3691843084310602046FFF7ECFC96
:100960000021A163012068702970084670BD012034
:1009700070BD00000FC0FFFFF8B504468C46203064
:1009800001780025012909D0012606704178002749
:10099000012905D0077002252846F8BD0220F8BDC0
:1009A00002214170A763206801684908490001607D
:1009B00061462046FFF7D2FCE06A00282068016803
:1009C00002D00E22114306E00A2211430160206882
:1009D000016804229143016020680168314301608D
:1009E000DAE70000F8B5002303240125BAE02E461B
:1009F0009E40B44632407CD00E79B607B60F012E29
:100A000001D0022E17D186682746B6465E00B74051
:100A100000967646BE43B646CF68009EB7407646FF
:100A20003743876046686746BE430F79FF06FF0F6E
:100A30009F40374347600E79F643B6070ED0C6682D
:100A40002746B4465E00B646B7406646BE43B44647
:100A50008F687646B74066463743C7600E79B6075B
:100A6000B60F022E14D1DE08B60036180096366A8C
:100A70005F07B446FE0E0F27B646B7406646BE4334
:100A8000B4460F697646B74066463743009E3762E4
:100A900006682746B4465E00B646B7406646BE4383
:100AA0000F79B446BF07BF0F7646B7406646374357
:100AB00007604E68B603B60F53D02D4FBE692E4364
:100AC000BE61BE699F08F607F60F2A4EBF00BE1929
:100AD0000096B6680F27B4469E07360FB646B74055
:100AE0006646BE430927FF06B446B84202D1002736
:100AF00010E036E0204FB84201D101270AE01F4F35
:100B0000B84201D1022705E01D4FB84201D10327A9
:100B100000E005277646B74066463743009EB7603B
:100B2000184E36684F689643FF0300D51643154F9D
:100B30003E607E684F689643BF0300D51643114F51
:100B40007E60BE684F689643FF0200D516430D4F86
:100B5000BE60FE684F689643BF0200D51643094A3F
:100B6000D6605B1C0A681646DE4000D03FE7F8BD41
:100B70000010024000000140000400480008004846
:100B8000000C0048000401400148806870470000E4
:100B9000140000200248816802788918816070473B
:100BA0001400002010B506480168102211430160AE
:100BB000002000F007F800F027F8002010BD00002A
:100BC0000020024070B504460D4D7D202978C000FC
:100BD000FFF786FA01460B480068FFF781FA00F03C
:100BE00087FB002809D1042C07D200222146401E91
:100BF00000F02AF800206C6070BD012070BD00007C
:100C0000140000202000002008B508488169012256
:100C100011438161816911400091C26901040A4355
:100C2000C261C0690840009008BD00000010024089
:100C3000002805DBC106C90E012088400149086073
:100C40007047000000E100E010B501F057F910BD59
:100C5000F8B505460068354CC00352D5E06900265A
:100C6000C00007D4E16920040143E161E16901406A
:100C7000012600912E480168C90510D4016882152B
:100C800011430160FFF780FF074604E0FFF77CFF98
:100C9000C01B642824D826480068C005F6D5206A01
:100CA00003273F02384020D06968394081421CD078
:100CB000206A226AB843012109040A432262226A97
:100CC0008A4322622062C0070FD0FFF75DFF0090C9
:100CD00008E0FFF759FF0099411A1648814201D9EF
:100CE0000320F8BD206A8007F3D5206A6968B843FD
:100CF00008432062002E04D0E169012000078143EF
:100D0000E1612878C00705D0206BA96880088000C1
:100D1000084320632878800605D5206B102188437E
:100D2000E968084320630020F8BD0000001002407D
:100D30000070004088130000F8B50F46060059D037
:100D40003A4D2868C007C00FB84209D22868400849
:100D50004000384328602868C007C00FB84249D116
:100D60003068334C81070CD5400704D560680721F3
:100D70000902084360606068F0218843B168084355
:100D800060603078C00726D0706801280ED02168D6
:100D900002280ED0890700292CDA616889088900A9
:100DA00001436160FFF7F0FE00900DE021688903C8
:100DB000F1E78901EFE7FFF7E7FE0099411A1D48C7
:100DC000814201D90320F8BD60680C210840716898
:100DD00089008842EFD12868C007C00FB8420BD9FC
:100DE000286840084000384328602868C007C00FC2
:100DF000B84201D00120F8BD3078400706D56068C0
:100E0000072109028843F1680843606000F028F870
:100E10006168094A0906090F515CC8400749086022
:100E20000020FFF7CFFE0020F8BD000000200240A8
:100E300000100240881300009C1F000820000020C2
:100E40000448054900684968044A4905490F515C4E
:100E5000C84070472000002000100240AC1F00086E
:100E600010B514A30FCB88B06C460FC415A30FCBDD
:100E70000FC4184A51680C200B4603401648042B37
:100E800016D0082B14D18B021B0F6C46E45CD26A7F
:100E900004AB1207120F9A5CC90305D5002319464B
:100EA000FFF734F9214601E020460C4901F000F833
:100EB00008B010BD02030405060708090A0B0C0D53
:100EC0000E0F10100102030405060708090A0B0C97
:100ED0000D0E0F100010024000127A0000093D00B4
:100EE000FEB5040070D02078DC4DC0074AD0686899
:100EF0000007800F012807D068680007800F0228CC
:100F000009D16868C00306D5286880033AD56068AF
:100F10000028E7D036E06168012914D00120800460
:100F2000002901D0052914D02A68012109048A4327
:100F30002A602968814329606068002816D0FFF77D
:100F400023FE06460EE028680121090408432860B4
:100F5000F2E7296801432960F5E7FFF715FE801BDA
:100F600064286ED828688003F7D50BE0FFF70CFEE5
:100F7000064604E0FFF708FE801B6428F1D82868C5
:100F80008003F7D420780126800700283CDA6868BF
:100F90000007800F07D068680007800F022809D17A
:100FA0006868C00306D42868800716D5E068012861
:100FB0000AD112E0E0680028286816D03043286083
:100FC000FFF7E2FD074605E043E1FFF7DDFDC01B4B
:100FD0000228C6D828688007F7D52868F8218843F2
:100FE0002169C900084328600EE0400840002860DD
:100FF000FFF7CAFD074604E0FFF7C6FDC01B022845
:10100000AFD828688007F7D42078000722D5E06998
:101010000028686A0ED030436862FFF7B5FD0746C6
:1010200004E0FFF7B1FDC01B02289AD8686A800768
:10103000F7D50FE0400840006862FFF7A5FD0746BE
:1010400005E09DE0FFF7A0FDC01B022889D8686A73
:101050008007F7D4207804274007002860DA0020B2
:101060000190E869C00008D4E969B8060143E96164
:10107000E969014001200091019079480168C905A2
:1010800011D40168821511430160FFF77DFD0090C6
:1010900005E0FFF779FD0099401A642870D8704880
:1010A0000068C005F5D5A06801280AD0002801D045
:1010B000052810D0286A400840002862286AB843F2
:1010C00001E0286A30432862A068002812D0FFF7A8
:1010D0005BFD00900AE0286A38432862F1E7FFF7D9
:1010E00053FD0099411A5F48814249D8286A800718
:1010F000F5D50DE0FFF748FD009006E0FFF744FD51
:101100000099411A574881423AD8286A8007F5D495
:101110000198002804D0E969012000078143E961B2
:101120002078C00635D5606901280CD0401D686B59
:1011300023D038436863686B400840006863FFF75A
:1011400023FD064622E0686B38436863686B3043D2
:101150006863FFF719FD064604E0FFF715FD801BE5
:1011600002285BD8686B8007F7D5686BF821884345
:10117000A169C900084368630BE0B8436863F4E7FA
:101180004CE0FFF701FD801B022847D8686B800701
:10119000F7D4206A00285ED069680907890F022900
:1011A00042D0012636060228286805D0B0432860C0
:1011B000FFF7EAFC044633E0B0432860FFF7E4FCA5
:1011C000074604E0FFF7E0FCC01B022826D8286889
:1011D0008001F7D4E86AE16A000900010843E86287
:1011E000616AA06A084369683D221204914308437A
:1011F0006860286830432860FFF7C6FC044604E0B6
:10120000FFF7C2FC001B022808D828688001F7D528
:1012100021E0FFF7B9FC001B022801D90320FEBD25
:1012200028688001F5D416E00128F8D06868E96ADA
:1012300001221204636A02409A420AD10907E26A53
:10124000090F914205D10F2189040840A16A884203
:1012500001D00120FEBD0020FEBD000000100240B4
:101260000070004088130000F8B51D4616460F4672
:10127000040003D0A06F002802D007E00120F8BDD1
:10128000002174200155204600F06AFA2420A0674E
:1012900020680168490849000160204600F010FDFF
:1012A0000128ECD0606A002802D0204600F071FCD2
:1012B0002068816801229203114381602168886857
:1012C000520090433843886071052804226808431F
:1012D0001168064B19400143116020680168012222
:1012E00011430160204600F0B9FCF8BDFFFF00FC8F
:1012F000094910B5401E884201D9012010BD074C94
:1013000060610321081F00F0F9FD0020A0610720A3
:101310002061002010BD0000FFFFFF0000E000E0A2
:1013200070477047F0B502462032137F012B1BD067
:10133000012616770223537705686B68AC6870271F
:10134000BB430F681F436F600068084B984202D090
:10135000074B984204D1802349689C432143816014
:10136000567700201077F0BD0220F0BD002C014020
:101370000004004070B5040005D025462035687F84
:10138000002802D006E0012070BD0020287720460A
:1013900000F014F802206877211D206800F040FB5F
:1013A00001204034A071A877E87720706070A070A9
:1013B000E070207160716877002070BD08B500682A
:1013C000094988420FD109488269C1140A438261E0
:1013D000806900220840009011460D20FFF734FC80
:1013E0000D20FFF725FC08BD002C01400010024035
:1013F000014620314A7F012A01D001207047022294
:101400004A770268D36801210B43D3600068084A19
:10141000904202D0074A904204D182685207520F8C
:10142000062A02D002680A430260002070470000CA
:10143000002C014000040040F8B505460446203564
:10144000287F0026012817D00120287702206877FE
:10145000226890687727FF23B8431B029843906067
:101460000868502838D00EDC20284FD006DC002831
:101470004CD010281ED149E00220F8BD302845D0BC
:10148000402817D13AE060282ED0702819D00122C8
:101490001203801A0FD090420CD1CB684A68896839
:1014A000206800F0F9FA2068816801229203114354
:1014B000816000E00126012068770020287730460F
:1014C000F8BDCB684A688968206800F0E5FA2168B1
:1014D000886838438860EEE7CA684968206800F089
:1014E00034FB5021206806E0CA684968206800F093
:1014F0003DFB6021206800F0DAFADCE7CA68496841
:10150000206800F022FB40212068F4E722680146B1
:101510001046F0E7704770B5044600680169002581
:10152000C9438907002915DBC168C943890711D45C
:10153000E91E01610120207720688069800720462C
:1015400002D0FFF7E7FF04E000F096F8204600F035
:1015500094F8257720680169C943490717D4C16801
:10156000C943490713D40421C943016102202077EC
:10157000206880698005800F204602D0FFF7CAFFEF
:1015800004E000F079F8204600F077F8257720682D
:101590000169C943090716D4C168C943090712D4B0
:1015A0000821C9430161042020772068C0698007B1
:1015B000204602D0FFF7AEFF04E000F05DF82046C1
:1015C00000F05BF8257720680169C943C90617D484
:1015D000C168C943C90613D41021C9430161082059
:1015E00020772068C0698005800F204602D0FFF771
:1015F00091FF04E000F040F8204600F03EF8257727
:1016000020680169C943C90708D1C168C943C9072E
:1016100004D1891E0161204600F030F8206801697C
:10162000C943090609D4C168C943090605D4802104
:10163000C94301612046FFF773FE20680169C94371
:10164000490609D4C168C943490605D44021C943A4
:101650000161204600F082F820680169C9438906CB
:1016600009D4C168C943890605D42021C943016151
:101670002046FFF756FE70BD70477047F8B500680A
:101680001A49884230D11A4F1A4C1B4D1B4E00206C
:101690001B4A810052583B68401CD2183A60194AD4
:1016A00023685258D2182260174A2B685258D21811
:1016B0002A60164A51583268891831600A28E7DBD7
:1016C0000A213868FEF70CFD38600A212068FEF711
:1016D00007FD20600A212868FEF702FD28600A2124
:1016E0003068FEF7FDFC3060F8BD0000002C0140C2
:1016F00004000020080000200C0000201000002042
:10170000340000205C00002084000020AC00002099
:1017100070B5044605462034207F01280ED00126EE
:10172000267702206077284600F0C9F9014600209C
:10173000002905D066772077012070BD022070BD9A
:101740002968CA6840239A43CA602968CA681B028C
:101750009A43CA6066772077002070BD704700000A
:1017600010B586B0044614216846FEF717FD1249ED
:10177000206888421ED111488269012189030A43E9
:10178000826182690A4005924269C9000A43426146
:101790004069084005900E20009002200190002032
:1017A0000290032003900120049009206946C0069E
:1017B000FFF718F906B010BD0038014000100240D4
:1017C000FEE700003EB500212648009101910291FC
:1017D000234A4160026004468160012204230C34E4
:1017E0000EC4017641768176FF23C176C233C36190
:1017F00003460162203319718262FEF7DDFE002884
:1018000001D0FEF7BFFD0520009001200003062453
:101810000190694602941348FEF7B6FD002801D0F6
:10182000FEF7B0FD69460F480094FEF7ADFD0028B5
:1018300001D0FEF7A7FD0720009069460948FEF792
:10184000A3FD002801D0FEF79DFD09200090694608
:101850000448FEF799FD002801D0FEF793FD3EBD38
:1018600000240140D400002008B508484169012245
:101870001143416140691040002200901146092047
:10188000FFF7E2F90920FFF7D3F908BD0010024085
:1018900008B508484269012149040A434261426986
:1018A0000A400092426949000A4342614069084087
:1018B000009008BD0010024010B58CB000240594C3
:1018C00006940794142168460894FEF767FC1C48A8
:1018D00009941A490A9401604B218901846041608E
:1018E000046118494461C16080218161FFF742FDB4
:1018F000002801D0FEF746FD01200003059005A950
:101900000F48FFF799FD002801D0FEF73BFD0620A8
:101910000090694601940A48FFF7FAFE002801D0BA
:10192000FEF730FD099409A905480A94FFF7FAFC6F
:10193000002801D0FEF726FD0CB010BD002C0140A0
:10194000580100208813000010B50D480B490160B4
:101950004B214902416000218160C16001618161C8
:10196000C1610C22016242610B4641620A46FFF7E7
:101970007BFC002801D0FEF705FD10BD00380140BA
:10198000A0010020FEE77047704710B5FFF702F98D
:1019900010BD70B594B030216846FEF7FFFB0024FF
:1019A00001250F9412200595009010200E9410949C
:1019B0001394049006900D9405201294C0040C9486
:1019C000039502260A901194089609940B94684690
:1019D000FFF786FA002801D072B6FEE707200C90C8
:1019E0000E9401210D960F940CA8FFF7A5F900287D
:1019F00001D072B6FEE710A810951294FFF728F9EF
:101A0000002801D072B6FEE714B070BD7047000028
:101A100010B50248FFF77FFD10BD000058010020FF
:101A200070B50268174B184E984201D0B04203D1EE
:101A30007024A2434C682243144C154D984208D0A0
:101A4000B04206D0134EB04203D0A04201D0A8420B
:101A500004D103263602B243CE6832438026B24315
:101A60004E69324302608A68C2620A6882629842A2
:101A700003D0A04201D0A84201D10969016301212C
:101A8000416170BD002C0140000400400044014051
:101A9000004801400020004030B58468FF252D0239
:101AA0001B021343AC430B432343836030BD826866
:101AB00070239A430A4307210A438260704770B536
:101AC00005680024AA6870239A434B681343DB0817
:101AD0000A68DB001A43AA604A6813071B0F31D15A
:101AE0001211130000F0FCF9082F2F2F2F0C2228C1
:101AF000052E0B698A68C9680068FFF7CDFF22E0F0
:101B00000A68052A10D00268136A156A6D086D000C
:101B100015620568AA690969F026B24309011143F3
:101B2000A961006803620EE0012070BD0A6989683E
:101B3000006800F00AF806E00A698968006800F0A9
:101B400015F800E00124204670BD30B5036A046A30
:101B50006408640004628469F025AC4312012243E6
:101B60000A24A3430B438261036230BD30B5036A8C
:101B70001024A34303628469036A0F252D03120313
:101B8000AC432243A024A3430901194382610162AB
:101B900030BD10B5818CC90707D001684A680123A0
:101BA0005B049A43836A1A434A60818C890707D58C
:101BB00001684A6801231B049A43C36A1A434A60B6
:101BC000818C490707D501684A6801239B049A4321
:101BD000036B1A434A60818C090707D501684A687C
:101BE0000123DB039A43436B1A434A60818CC90685
:101BF00007D50268916801231B039943836B19433E
:101C00009160818C890607D501688A6801235B038E
:101C10009A43C36B1A438A60818C490612D50368C4
:101C20005A6801210905046C8A4322435A60026CF8
:101C30008A4207D10268516803235B059943436CCC
:101C400019435160818C090607D501684A68012350
:101C5000DB04806C9A4302434A6010BDF8B5044629
:101C6000002680300660FEF78FFF0546206800687A
:101C7000124F000709D501212B46002249052046B5
:101C8000009700F0ABF800280DD1206800684007ED
:101C90000BD501212B46002289052046009700F034
:101CA0009DF8002801D00320F8BD2020A067E06740
:101CB0002666603426750020F8BD0000FFFFFF0196
:101CC00070B5044680682169E269084361690025AE
:101CD0001143084321680A683C4B1A4002430A60DA
:101CE00021684868032212039043E2681043486069
:101CF000A169206A084321688A680B231B029A4362
:101D000002438A603248006B8007800F16D001289A
:101D100018D0022818D0032812D010210120E3691E
:101D2000C0032C4A2C4E83422BD100290ED002290D
:101D30000FD004290FD008293FD110E00021EDE792
:101D40000221EBE70421E9E70821E7E7FFF778F84C
:101D500003E0104603E0FFF783F8002831D0616804
:101D600040004A088018FEF7BBF980B201461039DE
:101D7000B14222D81849491C01400007400F0843CE
:101D80001DE0002906D0022907D0042907D0082920
:101D900013D108E0FFF754F803E0104603E0FFF723
:101DA0005FF800280DD061684A081018FEF798F90E
:101DB00080B201461039B14201D9012501E0216804
:101DC000C86000206066A066284670BDF369FFFF0A
:101DD0000010024000127A00EFFF0000FFB581B052
:101DE00005461746044660350A9E55E0701C53D0E0
:101DF000FEF7CAFE0499401AB04230D8002E2ED009
:101E000020680168490747D5C069C043000543D42D
:101E100001202168C0020862EFF31080012181F3E4
:101E2000108821680B68FF22A13293430B6080F376
:101E30001088EFF31080012181F3108821688A68EF
:101E4000520852008A6080F310882020A067E06763
:101E50008034206000202875032005B0F0BDEFF32A
:101E60001080012181F3108821680B68FF22A132C4
:101E700093430B6080F31088EFF31080012181F30E
:101E8000108821688A68520852008A6080F310889E
:101E90002020A067E067DDE72068C16902988843D9
:101EA00004D00020B842A1D00020D6E70120F9E7F5
:101EB000F8B5040C8BB2264682B25E430D0C104678
:101EC000370C5843360480190021794116466E4379
:101ED000370C36048019794126466E438919F8BDBE
:101EE00030B47446641E2578641CAB4200D21D4693
:101EF000635D5B00E31830BC184700008307FF22D6
:101F0000DB0E9A408907090E9940002808DB8308F8
:101F100009489B001B1818689043084318607047D5
:101F20000007000F0838830804489B001B18D86975
:101F300090430843D861704700E400E000ED00E002
:101F400002E008C8121F08C1002AFAD17047704782
:101F5000002001E001C1121F002AFBD170470000E0
:101F6000FEF720FEFFF715FDFFF792FCFFF77CFC64
:101F7000FFF728FCFFF7E8FCFFF79EFC0448FFF79B
:101F800037FA042203490448FEF72EFCF9E7000063
:101F90005801002024000020D40000200000000090
:101FA0000000000001020304060708090000000009
:101FB00001020304D41F00080000002024000000D8
:101FC000401F0008F81F000824000020040600003D
:101FD000501F00080000000000000000000000008A
:101FE00000000000000000000100000004000000EC
:081FF0000000000000127A005D
:04000005080000B13E
:00000001FF
